:1008B50075A0FE1208D21208008F0BE50BB40103D8
:0D08C500E4F50AE50BB402EE750A0180E9C6
:03000B0002086187
:0B086100C0E0C0D075D000C000C00790
:10086C00758A66758CFC0509E50970020508C39448
:10087C00F4E50894014029750800750900E50A7033
:10088C000DAFA07801EF08800123D8FDF5A0E50A93
:10089C00B4010DAFA07801EF08800103D8FDF5A0DD
:0908AC00D007D000D0D0D0E0321A
:1008D2005389F0438901758A66758CFCC28DD28C6E
:0708E200D2A9D2AFC2B92276
:10080000E4F50C20B1137F14FE1208E930B1FD7F2E
:10081000147E001208E9750C0120B0147F147E00CC
:100820001208E930B0FD7F147E001208E9750C0251
:1008300020B2147F147E001208E930B2FD7F147ECE
:10084000001208E9750C0320B3147F147E0012080F
:10085000E930B3FD7F147E001208E9750C04AF0C7B
:010860002275
:1008E900EF1FAC0670011E4C600A7D027CC7DCFE5E
:0408F900DDFC80ECB6
:0108FD0022D8
:030000000208FEF5
:0C08FE00787FE4F6D8FD75810C0208B587
:00000001FF
