:0308D2000108001A
:0508CD0012088C80FE02
:030023000208BC14
:0908BC003098058599A0C298321C
:1008A700EF1FAC0670011E4C600A7D027CC7DCFEA0
:0408B700DDFC80ECF8
:0108BB00221A
:10088C0043878075985053890F438920758BF47575
:0B089C008DF4C2ABD28ED2AFD2AC22E2
:0808C5008F993099FDC29922C0
:03000000020800F3
:0C080000787FE4F6D8FD758108020847F7
:10080C000208CDE493A3F8E493A34003F68001F22D
:10081C0008DFF48029E493A3F85407240CC8C333ED
:10082C00C4540F4420C8834004F456800146F6DFBC
:10083C00E4800B01020408102040809008D2E47E72
:10084C00019360BCA3FF543F30E509541FFEE493B1
:10085C00A360010ECF54C025E060A840B8E493A378
:10086C00FAE493A3F8E493A3C8C582C8CAC583CAA3
:10087C00F0A3C8C582C8CAC583CADFE9DEE780BE5B
:0108D5000022
:00000001FF
