:080BE300434C4F434B003A0064
:090BC500011A37011B3B011C174A
:10098100120BA2120B607BFF7A0B79E37D017F01D1
:10099100120B027BFF7A0B79E97D037F02120B02B6
:1009A1007BFF7A0B79E97D067F02120B02E51AFBC8
:1009B1007A00750C027D077F02120B43E51BFB7A5F
:1009C10000750C027D047F02120B43E51CFB7A00CB
:0C09D100750C027D017F02120B4380D1E7
:03000B000209DD0A
:0409DD00C0E0C0D0E6
:1009E100758A66758CFC0519E51970020518C394A2
:1009F100E8E51894034027751800751900051AE5F4
:100A01001A943C4019751A00051BE51B943C400ED5
:0E0A1100751B00051CE51C94174003751C00A6
:050A1F00D0D0D0E03250
:10092000E4F52720B1137F14FE120B8D30B1FD7F4B
:10093000147E00120B8D75270120B0147F147E00E9
:10094000120B8D30B0FD7F147E00120B8D752702C7
:1009500020B2147F147E00120B8D30B2FD7F147E06
:1009600000120B8D75270320B3147F147E00120B29
:100970008D30B3FD7F147E00120B8D752704AF27D9
:010980002254
:100B60005389F0438901758A66758CFCC28DD28CDD
:070B7000D2A9D2AFC2B922E5
:060BB600C2A58F80D2A74A
:080BBC007F027EEFDEFEDFFC8C
:010BC400220E
:0A0BCF00C2A6120BB6C2A7020BBCAF
:100B2500CFCDCFCECCCE12083F7C007D0A12083F38
:040B3500ED2430FF7C
:0A0B3900D2A6120BB6C2A7020BBC35
:100B7700AE07BE0104ED148006BE0209ED243F4412
:060B870080FF120BCF22DB
:100BA2007F38120BCF7F0C120BCF7F06120BCF7F39
:040BB20001020BCF62
:0A0BD900AC03120B77AF04020B39D6
:060B02008B088A09890A34
:100B0800120B77E4FDAB08AA09A90A8D8275830048
:0C0B1800120800FF6006120B390D80E986
:010B240022AE
:0C0ACF007F0AEA24FFFDE434FFFC7E00F7
:080ADB008E0D8F0E8C0F8D10A3
:100AE3007F017E00E4FBEBC39510E50F6480F8748F
:0E0AF3008098500AAC0DAD0E12082D0B80E855
:010B010022D1
:040B43008A0A8B0B84
:100B4700120B77AA0CEAD39400400D120ACFAC0A15
:080B5700AD0B120B251A80ED15
:010B5F002273
:100A2400120B77C3EA64809480400B7F2B120B393E
:100A34008A168B17800E7F2D120B39C3E49BF51792
:100A4400E49AF516AA15EAD39400400D120ACFAC25
:090A540016AD17120B251A80EDF6
:010A5D002276
:040A5E008A1F8B2040
:100A6200120B77AA21EAD3940040297F10120AD1EF
:100A7200AC1FAD20CFCDCFCECCCE12083FEF540F5E
:100A8200FEC3940AEE5004243080022437FF120B76
:040A9200391A80D1BC
:010A9600223D
:040A97008A248B25FD
:100A9B00120B77AA26EAD394004028EA24FFFDE440
:100AAB0034FFFC7F027E00120ADBAC24AD25CFCDD8
:100ABB00CFCECCCE12083FEF54012430FF120B39AE
:030ACB001A80D2BC
:010ACE002205
:100B8D00EF1FAC0670011E4C600A7D027CC7DCFEB7
:040B9D00DDFC80EC0F
:010BA1002231
:030000000208945F
:0C089400787FE4F6D8FD7581270208DBB0
:10080000BB010CE58229F582E5833AF583E02250AD
:1008100006E92582F8E622BBFE06E92582F8E222F7
:0D082000E58229F582E5833AF583E4932211
:10082D00EF8DF0A4A8F0CF8CF0A428CE8DF0A42EDF
:02083D00FE2299
:10083F00BC000BBE0029EF8DF084FFADF022E4CC9D
:10084F00F875F008EF2FFFEE33FEEC33FCEE9DEC66
:10085F00984005FCEE9DFE0FD5F0E9E4CEFD22EDAC
:10086F00F8F5F0EE8420D21CFEADF075F008EF2FF6
:10087F00FFED33FD4007985006D5F0F222C398FDE7
:05088F000FD5F0EA2284
:1008A000020981E493A3F8E493A34003F68001F2E4
:1008B00008DFF48029E493A3F85407240CC8C33359
:1008C000C4540F4420C8834004F456800146F6DF28
:1008D000E4800B0102040810204080900BC5E47EE8
:1008E000019360BCA3FF543F30E509541FFEE4931D
:1008F000A360010ECF54C025E060A840B8E493A3E4
:10090000FAE493A3F8E493A3C8C582C8CAC583CA0E
:10091000F0A3C8C582C8CAC583CADFE9DEE780BEC6
:010BCE000026
:00000001FF
