:100A0300120B377D427C007F01120A567F057E0060
:100A1300120B227F011209D38F25EFFB7A00750C8D
:0A0A2300037D017F02120ABB80FE72
:100B2200EF1FAC0670011E4C600A7D027CC7DCFE22
:040B3200DDFC80EC7A
:010B3600229C
:10089400E4F52620B1137F14FE120B2230B1FD7F44
:1008A400147E00120B2275260120B0147F147E00E2
:1008B400120B2230B0FD7F147E00120B227526022B
:1008C40020B2147F147E00120B2230B2FD7F147EFE
:1008D40000120B2275260320B3147F147E00120B22
:1008E4002230B3FD7F147E00120B22752604AF263E
:0108F40022E1
:060B4B00C2A58F80D2A7B5
:080B51007F027EEFDEFEDFFCF7
:010B59002279
:0A0B7200C2A6120B4BC2A7020B51E2
:100A9D00CFCDCFCECCCE12083F7C007D0A12083FC1
:040AAD00ED2430FF05
:0A0AB100D2A6120B4BC2A7020B5194
:100B0C00AE07BE0104ED148006BE0209ED243F447D
:060B1C0080FF120B7222A3
:100B37007F38120B727F0C120B727F06120B727FBB
:040B470001020B722A
:0A0B7C00AC03120B0CAF04020AB127
:060A7A008B228A2389246F
:100A8000120B0CE4FDAB22AA23A9248D82758300EE
:0C0A9000120800FF6006120AB10D80E998
:010A9C002237
:0C09A0007F0AEA24FFFDE434FFFC7E0027
:0809AC008E0D8F0E8C0F8D10D3
:1009B4007F017E00E4FBEBC39510E50F6480F874BF
:0E09C4008098500AAC0DAD0E12082D0B80E885
:0109D2002202
:040ABB008A0A8B0B0D
:100ABF00120B0CAA0CEAD39400400D1209A0AC0A39
:080ACF00AD0B120A9D1A80ED27
:010AD70022FC
:1008F500120B0CC3EA64809480400B7F2B120AB163
:100905008A168B17800E7F2D120AB1C3E49BF5174B
:10091500E49AF516AA15EAD39400400D1209A0AC85
:0909250016AD17120A9D1A80EDAF
:01092E0022A6
:04092F008A1A8B1B7A
:10093300120B0CAA1CEAD3940040297F101209A2BF
:10094300AC1AAD1BCFCDCFCECCCE12083FEF540F98
:10095300FEC3940AEE5004243080022437FF120AA7
:04096300B11A80D174
:01096700226D
:040968008A1F8B2037
:10096C00120B0CAA21EAD394004028EA24FFFDE4E0
:10097C0034FFFC7F027E001209ACAC1FAD20CFCD42
:10098C00CFCECCCE12083FEF54012430FF120AB167
:03099C001A80D2EC
:01099F002235
:100AF5005389F0438901758A66758CFCC28DD28C49
:070B0500D2A9D2AFC2B92250
:090B9000D2A0D2A1C2A0C2A12290
:070B9900C2A0D2A1D2A022EC
:020A2D00AD0713
:100A2F00E4FB74807E00A803088006CEA2E713CEF5
:100A3F0013D8F8FFEDF582EF558224FF92A0D2A1D3
:060A4F00C2A10BBB08DC94
:010A5500227E
:100AD800D2A0E4FED2A130A00D7480A8060880023E
:0C0AE800C313D8FC4207C2A10EBE08E8F0
:010AF40022DF
:0A0B8600EF24FF92A0D2A1C2A12229
:0B0B5A00D2A0D2A1A2A0E433FFC2A1F0
:010B6500226D
:100A56008F088C098D0A120B907FA0120A2D120B9B
:100A66005AAF08120A2D120B5AAF0A120A2D120B90
:040A76005A020B997C
:0209D3008F088B
:1009D500120B907FA0120A2D120B5AAF08120A2D86
:1009E500120B5A120B907FA1120A2D120B5A120AE2
:0D09F500D88F097F01120B86120B99AF09F4
:010A020022D1
:03000000020B668A
:0C0B6600787FE4F6D8FD758126020A03B2
:10080000BB010CE58229F582E5833AF583E02250AD
:1008100006E92582F8E622BBFE06E92582F8E222F7
:0D082000E58229F582E5833AF583E4932211
:10082D00EF8DF0A4A8F0CF8CF0A428CE8DF0A42EDF
:02083D00FE2299
:10083F00BC000BBE0029EF8DF084FFADF022E4CC9D
:10084F00F875F008EF2FFFEE33FEEC33FCEE9DEC66
:10085F00984005FCEE9DFE0FD5F0E9E4CEFD22EDAC
:10086F00F8F5F0EE8420D21CFEADF075F008EF2FF6
:10087F00FFED33FD4007985006D5F0F222C398FDE7
:05088F000FD5F0EA2284
:00000001FF
