:1009FD00E517FD7C007F011208F61209748F17E5CB
:100A0D001760F77FF47E011209D5E517FD7C007F95
:060A1D00011208F680E45E
:100A2300EF1FAC0670011E4C600A7D027CC7DCFE22
:040A3300DDFC80EC7A
:010A3700229C
:10097400E4F50820B1137F14FE120A2330B1FD7F81
:10098400147E00120A2375080120B0147F147E001F
:10099400120A2330B0FD7F147E00120A2375080268
:1009A40020B2147F147E00120A2330B2FD7F147E1D
:1009B40000120A2375080320B3147F147E00120A60
:1009C4002330B3FD7F147E00120A23750804AF0898
:0109D4002200
:0A0A44003F065B4F666D7D077F6F74
:0608F6008F088C098D0A39
:1008FC00780B7C007D007BFF7A0A79447E007F0AAE
:10090C001208D0E50814B40800505490092575F06D
:10091C0003A4C58325F0C5837302093D0209410276
:10092C00094502094902094D02095502095D0209EE
:10093C0065D2A4800ED2A48012D2A48016D2A48038
:10094C001AC2A4D2A3D2A28016C2A4D2A3C2A280DD
:10095C000EC2A4C2A3D2A28006C2A4C2A3C2A27415
:07096C000B250AF8E6F580F7
:010973002261
:1009D5008E088F09E4F515F516C3E5169509E51595
:1009E50095085013B2A57F017E00120A230516E56E
:0809F5001670E6051580E222F0
:03000000020A38B9
:0C0A3800787FE4F6D8FD7581170209FDF7
:10080000E709F608DFFA8046E709F208DFFA803EDA
:1008100088828C83E709F0A3DFFA8032E309F608C7
:10082000DFFA8078E309F208DFFA807088828C832F
:10083000E309F0A3DFFA806489828A83E0A3F608E3
:10084000DFFA805889828A83E0A3F208DFFA804CBD
:1008500080D280FA80C680D4806980F28033801094
:1008600080A680EA809A80A880DA80E280CA8033FD
:1008700089828A83ECFAE493A3C8C582C8CCC58375
:10088000CCF0A3C8C582C8CCC583CCDFE9DEE78045
:100890000D89828A83E493A3F608DFF9ECFAA9F0C4
:1008A000EDFB2289828A83ECFAE0A3C8C582C8CC1A
:1008B000C583CCF0A3C8C582C8CCC583CCDFEADE33
:1008C000E880DB89828A83E493A3F208DFF980CC95
:1008D00088F0EF60010E4E60C388F0ED2402B4048E
:1008E0000050B9F582EB2402B4040050AF23234535
:0608F00082239008507302
:00000001FF
