:100C530070617373776F726420006F6B200065722D
:020C630072001D
:10098900120C3F7BFF7A0C79537D027F01120BB663
:100999001208008F18E5186046D3940A5041C3E540
:1009A9001A9404E51994005020AE1BAF1C7C007DFD
:1009B9000A120A718E1B8F1CE51875F00A84E5F07E
:1009C900251CF51CE4351BF51B051AE51A700205F3
:1009D90019750C04AB1CAA1B7D047F02120BF7E5E9
:1009E90018B40B9FE51CB4D22BE51BB404267BFF7E
:1009F9007A0C795D7D0E7F01120BB6E4F51BF51CAF
:100A0900F519F51A750C04AB1CAA1B7D047F02129B
:100A19000BF7800D7BFF7A0C79617D0E7F01120B3C
:100A2900B6E4F51BF51CF519F51A750C04AB1CAAEF
:0B0A39001B7D047F02120BF702098CEA
:060C6500C2A58F80D2A79A
:080C6B007F027EEFDEFEDFFCDC
:010C7300225E
:0A0C8000C2A6120C65C2A7020C6B9D
:100BD900CFCDCFCECCCE120A837C007D0A120A83F8
:040BE900ED2430FFC8
:0A0BED00D2A6120C65C2A7020C6B21
:100C1400AE07BE0104ED148006BE0209ED243F4474
:060C240080FF120C80228B
:100C3F007F38120C807F0C120C807F06120C807F85
:040C4F0001020C8012
:0A0C8A00AC03120C14AF04020BEDD2
:060BB6008B088A09890A80
:100BBC00120C14E4FDAB08AA09A90A8D82758300F6
:0C0BCC00120A44FF6006120BED0D80E9D8
:010BD80022FA
:0C0B83007F0AEA24FFFDE434FFFC7E0042
:080B8F008E0D8F0E8C0F8D10EE
:100B97007F017E00E4FBEBC39510E50F6480F874DA
:0E0BA7008098500AAC0DAD0E120A710B80E85A
:010BB500221D
:040BF7008A0A8B0BD0
:100BFB00120C14AA0CEAD39400400D120B83AC0A0E
:080C0B00AD0B120BD91A80EDAC
:010C130022BE
:100AD800120C14C3EA64809480400B7F2B120BED38
:100AE8008A168B17800E7F2D120BEDC3E49BF5172A
:100AF800E49AF516AA15EAD39400400D120B83ACBC
:090B080016AD17120BD91A80ED8D
:010B110022C1
:040B12008A1F8B208B
:100B1600120C14AA21EAD3940040297F10120B85E7
:100B2600AC1FAD20CFCDCFCECCCE120A83EF540F63
:100B3600FEC3940AEE5004243080022437FF120BC1
:040B4600ED1A80D153
:010B4A002288
:040B4B008A248B2548
:100B4F00120C14AA26EAD394004028EA24FFFDE4ED
:100B5F0034FFFC7F027E00120B8FAC24AD25CFCD6E
:100B6F00CFCECCCE120A83EF54012430FF120BEDFF
:030B7F001A80D207
:010B82002250
:10080000E4F5087590FFC2932097137F14FE120C35
:100810002A3097FD7F147E00120C2A75080120965D
:10082000147F147E00120C2A3096FD7F147E001275
:100830000C2A7508052095147F147E00120C2A30AE
:1008400095FD7F147E00120C2A7508092094147FF0
:10085000147E00120C2A3094FD7F147E00120C2AA4
:1008600075080D7590FFC2922097147F147E0012B8
:100870000C2A3097FD7F147E00120C2A7508022086
:1008800096147F147E00120C2A3096FD7F147E0091
:10089000120C2A7508062095147F147E00120C2A6B
:1008A0003095FD7F147E00120C2A75080A209414DE
:1008B0007F147E00120C2A3094FD7F147E00120CEF
:1008C0002A75080E7590FFC2912097147F147E0040
:1008D000120C2A3097FD7F147E00120C2A75080333
:1008E0002096147F147E00120C2A3096FD7F147E11
:1008F00000120C2A7508072095147F147E00120C34
:100900002A3095FD7F147E00120C2A75080B209466
:10091000147F147E00120C2A3094FD7F147E001286
:100920000C2A75080F7590FFC2902097147F147ED3
:1009300000120C2A3097FD7F147E00120C2A7508D5
:10094000042096147F147E00120C2A3096FD7F142A
:100950007E00120C2A7508082095147F147E001260
:100960000C2A3095FD7F147E00120C2A75080C208D
:1009700094147F147E00120C2A3094FD7F147E00A4
:08098000120C2A750810AF08E3
:01098800224C
:100C2A00EF1FAC0670011E4C600A7D027CC7DCFE19
:040C3A00DDFC80EC71
:010C3E002293
:03000000020C747B
:0C0C7400787FE4F6D8FD7581260209891E
:100A4400BB010CE58229F582E5833AF583E0225067
:100A540006E92582F8E622BBFE06E92582F8E222B1
:0D0A6400E58229F582E5833AF583E49322CB
:100A7100EF8DF0A4A8F0CF8CF0A428CE8DF0A42E99
:020A8100FE2253
:100A8300BC000BBE0029EF8DF084FFADF022E4CC57
:100A9300F875F008EF2FFFEE33FEEC33FCEE9DEC20
:100AA300984005FCEE9DFE0FD5F0E9E4CEFD22ED66
:100AB300F8F5F0EE8420D21CFEADF075F008EF2FB0
:100AC300FFED33FD4007985006D5F0F222C398FDA1
:050AD3000FD5F0EA223E
:00000001FF
