:10097E007D017C007F011208F6E4FDFC7F02120867
:10098E00F6E4FDFC7F031208F67D087C007F04125E
:0D099E0008F67D067C007F051208F680D368
:1009AB00EF1FAC0670011E4C600A7D027CC7DCFE9B
:0409BB00DDFC80ECF3
:0109BF002215
:0A09CC003F065B4F666D7D077F6FED
:0608F6008F088C098D0A39
:1008FC00780B7C007D007BFF7A0979CC7E007F0A27
:10090C001208D0E50814B40800505490092575F06D
:10091C0003A4C58325F0C5837302093D0209410276
:10092C00094502094902094D02095502095D0209EE
:10093C0065D2A4800ED2A48012D2A48016D2A48038
:10094C001AC2A4D2A3D2A28016C2A4D2A3C2A280DD
:10095C000EC2A4C2A3D2A28006C2A4C2A3C2A27415
:10096C000B250AF8E6F5807F017E001209ABE4F551
:01097C0080FA
:01097D002257
:030000000209C032
:0C09C000787FE4F6D8FD75811402097EF2
:10080000E709F608DFFA8046E709F208DFFA803EDA
:1008100088828C83E709F0A3DFFA8032E309F608C7
:10082000DFFA8078E309F208DFFA807088828C832F
:10083000E309F0A3DFFA806489828A83E0A3F608E3
:10084000DFFA805889828A83E0A3F208DFFA804CBD
:1008500080D280FA80C680D4806980F28033801094
:1008600080A680EA809A80A880DA80E280CA8033FD
:1008700089828A83ECFAE493A3C8C582C8CCC58375
:10088000CCF0A3C8C582C8CCC583CCDFE9DEE78045
:100890000D89828A83E493A3F608DFF9ECFAA9F0C4
:1008A000EDFB2289828A83ECFAE0A3C8C582C8CC1A
:1008B000C583CCF0A3C8C582C8CCC583CCDFEADE33
:1008C000E880DB89828A83E493A3F208DFF980CC95
:1008D00088F0EF60010E4E60C388F0ED2402B4048E
:1008E0000050B9F582EB2402B4040050AF23234535
:0608F00082239008507302
:00000001FF
