:1009160020200A30787C3E3E7C78300408117F1017
:1009260008060000000515D6DCD6150500000000F7
:03093600000000BE
:03000B000208C127
:0408C100C0E0C0D003
:1008C500758A66758CFC0509E50970020508C394EF
:1008D500FAE50894004011750800750900052AE538
:0808E5002A94204003752A004B
:0508ED00D0D0D0E03284
:1008F20012098812095CE4F52BE52B252A240AF853
:10090200E6FD7C00AF2B12093A052BE52BC39408B8
:0409120040E780E258
:10097300EF1FAC0670011E4C600A7D027CC7DCFED3
:04098300DDFC80EC2B
:01098700224D
:05098800C2B6C2B52259
:02088C00A907BA
:10088E00E4FBFAAF0374807E00A807088006CEA2B0
:10089E00E713CE13D8F8FFE9FDEF5D24FF92B4D233
:1008AE00B6C2B60BBB00010AEB64084A70D5D2B5CE
:0208BE00C2B5C1
:0108C0002215
:10093A008F2CAF0512088CAF2C7480A80708800290
:10094A00C313D8FCF4F5807F017E00120973758009
:02095A00FF227A
:10095C005389F0438901758A66758CFCC28DD28CE3
:07096C00D2A9D2AFC2B922EB
:03000000020800F3
:0C080000787FE4F6D8FD75812C020847D3
:10080C000208F2E493A3F8E493A34003F68001F208
:10081C0008DFF48029E493A3F85407240CC8C333ED
:10082C00C4540F4420C8834004F456800146F6DFBC
:10083C00E4800B0102040810204080900916E47E2D
:10084C00019360BCA3FF543F30E509541FFEE493B1
:10085C00A360010ECF54C025E060A840B8E493A378
:10086C00FAE493A3F8E493A3C8C582C8CAC583CAA3
:10087C00F0A3C8C582C8CAC583CADFE9DEE780BE5B
:0109390000BD
:00000001FF
